:020000040800F2
:1000000080070020890100088B12000819120008DF
:10001000891200088F020008451500080000000042
:100020000000000000000000000000008F12000827
:10003000D3020008000000008D1200089112000891
:10004000A3010008A3010008A3010008A301000800
:10005000A3010008A3010008A3010008A3010008F0
:10006000A3010008A3010008A3010008A3010008E0
:10007000A3010008A3010008910200089D020008E6
:10008000A3010008A3010008A3010008A3010008C0
:10009000A3010008A3010008A3010008A3010008B0
:1000A000A3010008A3010008A3010008A3010008A0
:1000B000A3010008A3010008A3010008A301000890
:1000C000A3010008A3010008A3010008A301000880
:1000D000A301000839150008A3010008A3010008C6
:1000E000A3010008A3010008A301000800F002F822
:1000F00000F03AF80AA090E8000C82448344AAF188
:100100000107DA4501D100F02FF8AFF2090EBAE885
:100110000F0013F0010F18BFFB1A43F0010318473B
:10012000F014000010150000103A24BF78C878C100
:10013000FAD8520724BF30C830C144BF04680C60ED
:10014000704700000023002400250026103A28BF35
:1001500078C1FBD8520728BF30C148BF0B60704739
:100160001FB51FBD10B510BD00F058F81146FFF7C0
:10017000F7FF01F0F9F900F076F803B4FFF7F2FFAA
:1001800003BC00F07DF8000009488047094800479B
:10019000FEE7FEE7FEE7FEE7FEE7FEE7FEE7FEE737
:1001A000FEE7FEE704480549054A064B7047000094
:1001B000F3120008ED0000088001002080070020F5
:1001C00080030020800300204FF0000200B513469A
:1001D00094469646203922BFA0E80C50A0E80C5067
:1001E000B1F12001BFF4F7AF090728BFA0E80C5018
:1001F00048BF0CC05DF804EB890028BF40F8042B11
:1002000008BF704748BF20F8022B11F0804F18BF7D
:1002100000F8012B7047704770477047754600F033
:100220002BF8AE4605006946534620F00700854688
:1002300018B020B5FFF7B6FFBDE820404FF000062C
:100240004FF000074FF000084FF0000B21F00701BE
:10025000AC46ACE8C009ACE8C009ACE8C009ACE801
:10026000C0098D46704710B50446AFF300802046A4
:10027000BDE81040FFF781BF004870472001002013
:1002800001491820ABBEFEE7260002007047FEE7DA
:10029000014800F091B80000DC000020014800F0A7
:1002A0008BB800009800002030B590F84050012431
:1002B000AC40C56B6C60046863604368102B0368D6
:1002C00003D099600068C26030BD9A600068C16068
:1002D00030BD704772B6FEE710B590F821100022CD
:1002E000022905D00421816380F82020012010BD5F
:1002F00001680B6823F00E030B6001680B6823F0A4
:1003000001030B6090F84030C46B012101FA03F344
:10031000636080F8211080F82020104610BD000096
:1003200010B590F821100024022903D00421816324
:1003300001243DE001680A6822F00E020A600168AB
:100340000A6822F001020A601A4A0168914201D14A
:10035000012121E0174A1432914201D110211BE002
:10036000144A2832914201D1891515E0114A3C32D4
:10037000914201D189140FE00E4A5032914202D1CC
:100380004FF4803108E00B4A6432914202D14FF4BD
:10039000801101E04FF08071064A083A5160012156
:1003A00080F82110002180F82010416B01B18847AE
:1003B000204610BD080002402DE9F05FC16B0C68BB
:1003C00001680B68D0F840C0042202FA0CF2494DD3
:1003D000DFF824A1494E4A4FDFF828B1DFF828E1C1
:1003E00022422CD05A072AD50A68920603D40A68FA
:1003F00022F004020A600168A94201D1042219E036
:10040000514501D1402215E0B14202D14FF4806242
:1004100010E0B94202D14FF480420BE0594502D1BD
:100420004FF4802206E0714502D14FF4800201E0D2
:100430004FF080622F4908394A60C16A3BE04FF0B3
:10044000020808FA0CF818EA040F4FF000094FF000
:10045000010235D05FEA837832D50B689B0605D45C
:100460000B6823F00A030B6080F821200168A94281
:1004700001D1022219E0514501D1202215E0B142FB
:1004800002D14FF4007210E0B94202D14FF4005291
:100490000BE0594502D14FF4003206E0714502D11C
:1004A0004FF4001201E04FF00072124908394A601F
:1004B00080F82090816A00291AD0BDE8F05F0847D3
:1004C000082505FA0CF5254212D01B0710D50B683C
:1004D00023F00E030B6090F84010C36B02FA01F199
:1004E0005960826380F8212080F82090016BE2E758
:1004F000BDE8F09F080002401C00024030000240AE
:1005000044000240580002406C00024030B528B35D
:1005100008C8134914221944B1FBF2F18900C163E0
:1005200010498163022141771A6843F6F0718A43CA
:10053000D0E900142143D0E902452C43214304694A
:1005400021434469214384692143114319600021F7
:100550004163012242770177084630BD012030BD5A
:10056000F8FFFDBF0000024070B5044690F820007F
:10057000002501280CD0012084F8200094F8216087
:100580000020012E06D084F820000225284670BDE8
:10059000022070BD022684F82160A06320680668EE
:1005A00026F0010606602046FFF77EFEE06A00287E
:1005B0002068016802D041F00E0106E021F004013C
:1005C00001602068016841F00A010160206801684B
:1005D00041F001010160D9E770B5044600F0FEF872
:1005E0000546601C02D004480078044400F0F6F888
:1005F000401BA042FAD370BD000000202DE9F84F47
:10060000DFF8B891002409F1040A0AF1040B23462B
:100610000F270BF1040EC9E00125A5402A40AA428C
:100620007DD1674ED1F804C0ACEB0608B44532D09A
:1006300014DCBCF1030F3AD009DCBCF1000F2AD066
:10064000BCF1010F1CD0BCF1020F31D11DE0BCF197
:10065000110F17D0BCF1120F2AD119E0B8F5881F7D
:1006600019D006DCB8F5803F15D0B8F5801F1FD132
:1006700011E0B8F5001F0ED0B8F5041F18D10AE03C
:10068000CB6815E0CB681B1D12E0CB6808330FE088
:10069000CB680C330CE08B682BB1012B4FF00803B7
:1006A00003D0456104E0042302E0056100E000237B
:1006B000FF2A01D8064601E000F104064FEA84054E
:1006C00001D9A5F12005D6F8008007FA05FC28EA33
:1006D0000C0803FA05F548EA0508C6F800804D68DD
:1006E000ED0062D5374DAE6946F00106AE61AD69E9
:1006F00024F0030605F001050095334D06EB050CCB
:10070000DCF80850A607360F07FA06F825EA0805B0
:10071000DFF8B880404503D14FF0000817E044E00F
:10072000DFF8AC80404502D14FF001080FE0DFF860
:10073000A480404502D14FF0020808E0DFF898801D
:10074000404502D14FF0030801E04FF0040808FAD9
:1007500006F848EA0508CCF808804D68D9F800602A
:10076000ED034D4601D5164300E096432E604D68DB
:10077000DAF80060AD03554601D5164300E0964314
:100780002E604D68DBF80060ED025D4601D5164332
:1007900000E096432E604D68DEF80060AD027546BD
:1007A00001D5164300E096432E60641C0D682A466E
:1007B000E5407FF431AFBDE8F88F00000004014050
:1007C000000011100010024000000140000801402C
:1007D000000C0140001001400014014001488068F5
:1007E0007047000000000020024881680278114430
:1007F0008160704700000020074810B5016841F093
:1008000010010160032000F075F80F2000F006F8D9
:1008100000F024F8002010BD0020024070B50D4DFE
:1008200004464FF47A712878B1FBF0F00A49096860
:10083000B1FBF0F000F0ECFA48B9102C07D200221E
:100840002146501E00F036F800206C6070BD01207B
:1008500070BD0000000000200C0000200C4808B50E
:10086000816941F001018161816901F0010100911B
:10087000C16941F08051C161C06900F080500090B1
:100880000448416821F0E06141F00071416008BD19
:100890000010024000000140002809DB00F01F02A8
:1008A000012191404009800000F1E020C0F80011D2
:1008B00070470000F0B40E4B1B680C46C3F30223D4
:1008C000C3F10705042D00D90425191D072901D2FC
:1008D000002300E0DB1E012606FA05F1491E214037
:1008E00099409E40761E16403143F0BC00F02BBE6E
:1008F0000CED00E0064900F0070208684FF6FF0320
:10090000184040EA0220034A104308607047000084
:100910000CED00E00000FA052DE9F0470F46050058
:1009200061D0434E306800F00700B84209D2306809
:1009300020F0070038433060306800F00700B8420C
:1009400051D128683B4C810712D5400703D5606818
:1009500040F4E06060602878000703D5606840F4E8
:10096000605060606068A96820F0F0000843606033
:100970002878C00728D06868012810D0216802288C
:1009800010D0890700292EDA616821F003010143A4
:100990006160FFF723FF804641F288390DE021684E
:1009A0008903EFE78901EDE7FFF718FFA0EB0801E6
:1009B000494502D90320BDE8F0876068696800F006
:1009C0000C00B0EB810FEFD1306800F00700B842A7
:1009D0000BD9306820F0070038433060306800F0F1
:1009E0000700B84201D00120E5E72878400705D587
:1009F0006068E96820F4E0600843606028780007D8
:100A000006D56068296920F4605040EAC100606042
:100A100000F038F86168084AC1F30311515CC8401E
:100A20000649086006480068FFF7F8FE0020C2E7A4
:100A30000020024000100240F81500080C000020C1
:100A4000040000200448054900684968044AC1F3CD
:100A50000221515CC84070470C0000200010024089
:100A6000081600080448054900684968044AC1F3AB
:100A7000C221515CC84070470C00002000100240A9
:100A80000816000812A185B00FC98DE80F0014A048
:100A9000144A006804905168134801F00C03042BB9
:100AA00010D0082B0ED1C1F38343C9031DF80300F6
:100AB0000AD5516804AAC1F34041515C0A4A504327
:100AC000B0FBF1F005B0704708494843FAE7000071
:100AD00002030405060708090A0B0C0D0E0F10107F
:100AE000010200000010024000127A0000093D00DF
:100AF0002DE9F84F040070D02078C04DC00749D0D0
:100B00006868C0F38100012807D06868C0F38100DD
:100B1000022809D16868C00306D52868800339D542
:100B200060680028E7D035E06068B0F5803F0BD002
:100B300010B1B0F5A02F11D0286820F480302860C3
:100B4000286820F4802002E0286840F48030286083
:100B5000606890B1FFF742FE06460AE0286840F45C
:100B600080202860F0E700BFFFF738FE801B642874
:100B700073D828688003F7D50CE0FFF72FFE0646F0
:100B800005E000BFFFF72AFE801B6428F0D8286824
:100B90008003F7D420789A4E80074FF001094FF078
:100BA000000839D5686810F00C0F07D06868C0F3EA
:100BB0008100022809D16868C00306D4286880072C
:100BC00014D52069012808D110E02069B0B1C6F819
:100BD0000090FFF703FE074605E00AE1FFF7FEFD80
:100BE000C01B0228C4D828688007F7D52868616927
:100BF00020F0F80040EAC10028600DE0C6F800804F
:100C0000FFF7ECFD074604E0FFF7E8FDC01B0228F4
:100C100023D828688007F7D4207800072CD5794896
:100C2000A169D9B1C0F80090FFF7D8FD074604E0EC
:100C3000FFF7D4FDC01B02280FD8686A8007F7D5DC
:100C400071484FF4FA510068B0FBF1F0009000BF1A
:100C50000098411E0091FAD20EE080E0C0F80080BA
:100C6000FFF7BCFD074604E0FFF7B8FDC01B0228F4
:100C700075D8686A8007F7D42078400760D5E8699E
:100C80000027C00008D4E86940F08050E861E869B6
:100C9000012700F0805000905C480168C90513D41A
:100CA0000168834641F480710160FFF797FD824639
:100CB00006E000BFFFF792FDA0EB0A0064284ED8C3
:100CC000DBF80000C005F5D5E06801280AD008B1BE
:100CD000052813D0286A20F001002862286A20F035
:100CE000040002E0286A40F001002862E06841F256
:100CF000883B98B1FFF772FD82460BE0286A40F00E
:100D000004002862EEE700BFFFF768FDA0EB0A01D0
:100D100059455AD8286A8007F6D50CE0FFF75EFDE2
:100D2000824605E0FFF75AFDA0EB0A0159454CD871
:100D3000286A8007F6D41FB1E86920F08050E86186
:100D4000E06988B36968C1F38101022944D00228AF
:100D5000C6F8608004D0FFF741FD044638E034E077
:100D6000FFF73CFD074604E0FFF738FDC01B0228F3
:100D70002BD828688001F7D4206AB0F5803F05D1D0
:100D80006868A16820F4003008436860D4E908016D
:100D90000843696821F4741108436860C6F86090DC
:100DA000FFF71CFD044606E025E000BFFFF716FD37
:100DB000001B022809D828688001F7D51BE000BF76
:100DC000FFF70CFD001B022802D90320BDE8F88FB5
:100DD00028688001F4D40EE00128F7D06868226A00
:100DE00000F48031914204D1616A00F470108842AD
:100DF00001D00120EAE70020E8E7000000100240EF
:100E000000004242800442420C000020007000407A
:100E100010B5401EB0F1807F01D3012010BD4FF00E
:100E2000E02460610F21601700F08DFB0020A061BD
:100E300007202061002010BD70477047F8B5026898
:100E400004461068D168536910F00F0F4FF0000589
:100E500053D003F0010601F4907737435FD0C20707
:100E600005D0CA0503D5226C42F001022264420774
:100E700005D5DA0703D0226C42F002022264820711
:100E800005D5DA0703D0226C42F00402226402077F
:100E900007D501F02002324303D0226C42F0080251
:100EA0002264226C002A34D0800604D5880602D53C
:100EB000204600F089FA20684069216CC0F3801058
:100EC000090700D430B3204600F05DFA206841697C
:100ED00049061BD5416921F040014161A06BA8B1D1
:100EE00058494163A06BFFF71BFA002811D0A06B93
:100EF000416B01B0BDE8F040084783060FD58B0673
:100F00000DD52046BDE8F84000F05EBA2046FFF758
:100F100094FFF8BD2046FFF790FF2564F8BD266BCF
:100F20002023012E52D1C60650D5CE064ED51068CC
:100F300050680090506940062AD5A16B0868406847
:100F40000004000CEAD0A68D8642E7D9E0858869C6
:100F5000202818D0D06820F48070D06020684169C3
:100F600021F0010141612068416921F040014161A6
:100F700084F83E3025632068C16821F01001C1600B
:100F8000A06BFFF7A9F9A08DE18D401A81B219E09D
:100F9000A08DE18D401A81B2E08D0028BED00029DD
:100FA000BCD0D06820F49070D0602068426922F0F4
:100FB0000102426184F83E3025632068C26822F055
:100FC0001002C2602046FFF737FFF8BD05062BD59B
:100FD0000D0629D594F83D002128F6D1A068B0F57A
:100FE000805F01D12069B0B1206A411C2162216873
:100FF00000784860E08C401E0004000CE084E4D1DE
:101000002068C16821F08001C1602068C16841F09A
:101010004001C160F8BD206A0088C0F3080050603C
:10102000206A801C2062E5E74006F3D54806F1D52A
:10103000D168204621F04001D16084F83D3000F0B5
:10104000E9F8F8BDF512000870B5040004D094F872
:101050003D00002510B106E0012070BD84F83C5031
:10106000204600F023F8242084F83D002068C16861
:1010700021F40051C160204600F002FA20680169A5
:1010800021F4904101612068416921F02A01416108
:101090002068C16841F40051C1602564202084F8B3
:1010A0003D0084F83E00002070BD00002DE9F041B5
:1010B00086B00024064600940194029403940068CC
:1010C0002D49884255D12D48816941F48041816183
:1010D000816901F480410491816941F004018161D9
:1010E0008069274D00F0040004904FF400700090D8
:1010F000022001900320039069462846FFF77EFAFC
:101100002815CDE90004694628460294FFF776FACF
:101110001D4D1C484FF08008C5E90004C5E9024890
:101120002C6187146C61C5E906472846FFF7EEF984
:1011300008B1FFF7CFF8B5636E621248134D14384B
:1011400001C51020A5E81101104845F810496C614F
:10115000C5E90647FFF7DAF908B1FFF7BBF8756391
:101160000022114625206E62FFF7A4FB2520FFF721
:1011700093FB06B0BDE8F08100380140001002404A
:10118000000801405800024098000020DC000020C8
:101190007047000070B5044690F83D00202830D11B
:1011A00069B362B394F83C0001282AD0012084F886
:1011B0003C002162A284E28400252564212084F879
:1011C0003D00636B10489862636B1048D862636B94
:1011D0000F481863606B134645632668606B321DC9
:1011E000FFF7C2F921686FF04000086084F83C50B6
:1011F0002068416941F080014161002070BD0120FB
:1012000070BD022070BD00004F1300087D13000860
:101210000513000870477047FEE70000174808B53F
:10122000416941F0010141614069154900F0010047
:101230000090144801604FF480414160402181607A
:101240008021C1600021016141618161C161FFF7BD
:101250005DF908B172B6FEE7002211460E20FFF7D5
:1012600029FB0E20FFF718FB002211460F20FFF785
:1012700021FBBDE808400F20FFF70EBB0010024025
:101280000800024054000020FEE7FEE77047704768
:10129000FFF7AABA30B58FB028216846FEF794FF51
:1012A00014210AA8FEF790FF01210804CDE90010DF
:1012B0000024029402250491CDE907504FF4E01078
:1012C00009906846FFF714FC08B172B6FEE70F20DC
:1012D000CDE90A054FF48060CDE90C4002210AA84F
:1012E0000E94FFF719FB002801D072B6FEE70FB08D
:1012F00030BD704710B5406A0021C185C184FFF739
:101300009CFD10BD70B5446A2068406994F83D109A
:10131000C0F3C0100025212904D118B1E58420466E
:1013200000F049F82068406994F83E10C0F380103E
:10133000222904D118B1E585204600F024F8206C5C
:1013400040F0100020642046FFF777FD70BD10B517
:101350000146406A0968096889060CD40021C184E5
:1013600001684A6922F080024A610068C16841F060
:101370004001C16010BDFFF74DFF10BD10B5406AC0
:10138000FFF749FF10BD0168CA6822F49072CA6075
:1013900001684A6922F001024A61016B012904D106
:1013A0000168CA6822F01002CA60202180F83E104D
:1013B0000021016370470168CA6822F0C002CA6058
:1013C000202180F83D10704708B590F83E10222982
:1013D00001D0022008BD82684FF480539A4201D1A7
:1013E000016921B1816A9A421BD04AB10AE00268C0
:1013F000816A5268C2F308020A80816A891C08E087
:10140000026972B10268526802F07F020A70816A52
:10141000491C8162C18D491E0904090CC18503D094
:1014200019E002685268F1E70168CA6822F02002F8
:10143000CA600168CA6822F48072CA6001684A6999
:1014400022F001024A61202180F83E10016B01293F
:1014500003D0FFF79DFE002008BD00210163016855
:10146000CA6822F01002CA6001680A68D20602D572
:101470000A6849680091818DFFF7DEFCEBE7000008
:1014800070B5044600680169E26821F440511143D7
:1014900001612169A0680843616908432168CA683D
:1014A00041F20C639A430243CA6020684169A26911
:1014B00021F44071114341611E492068884202D1E4
:1014C000FFF7D0FA01E0FFF7BDFA00EBC00101EB36
:1014D0000012606864218000B2FBF0F3B3FBF1F30B
:1014E0006FF018067343B2FBF0F5B2FBF0F605EBB4
:1014F0008305322303EB0515B5FBF1F5B6FBF1F6D9
:1015000005F0F00505EB0615B2FBF0F6B2FBF0F0C6
:10151000B0FBF1F06FF01802504306EB800003EBD4
:101520000010B0FBF1F0216800F00F002844886043
:1015300070BD0000003801400148FFF77FBC00008B
:1015400010000020FEE70907090E002804DB00F167
:10155000E02080F80014704700F00F0000F1E02058
:1015600080F8141D7047000086B0FFF745F91BA0F6
:101570000FC88DE80F00FFF78DFE1C48816941F010
:1015800020018161816901F020010491816941F0AC
:1015900004018161806900F004000490FFF73EFEC1
:1015A000144813490C2201604FF4E13141600021DD
:1015B0008160C160C0E904128161C161FFF744FD2F
:1015C00008B172B6FEE74FF47A740D2269460948F5
:1015D000FFF7E0FD2046FEF7FFFFF6E748656C6C7D
:1015E0006F20776F726C64210000000000100240D1
:1015F0000038014010000020000000000000000042
:1016000001020304060708090000000001020304A8
:10161000301600080000002010000000280100081B
:101620004016000810000020700700004401000868
:101630000100000010000000000000000024F40081
:04000005080000ED02
:00000001FF
